:100000000C9462000C948A000C948A000C948A0070
:100010000C948A000C948A000C948A000C948A0038
:100020000C948A000C948A000C948A000C948A0028
:100030000C948A000C948A000C948A000C948A0018
:100040000C948A030C948A000C94FA030C94D40345
:100050000C948A000C948A000C948A000C948A00F8
:100060000C948A000C948A000000000024002700F1
:100070002A0000000000250028002B0000000000DE
:1000800023002600290004040404040404040202DA
:100090000202020203030303030301020408102007
:1000A0004080010204081020010204081020000012
:1000B0000008000201000003040700000000000027
:1000C00000002C0411241FBECFEFD8E0DEBFCDBF4F
:1000D00021E0A6E2B1E001C01D92AD3EB207E1F71A
:1000E00011E0A0E0B1E0E8E3F5E102C005900D9277
:1000F000A632B107D9F710E0C2E6D0E004C02197DC
:10010000FE010E946707C136D107C9F70E94820429
:100110000C949A0A0C9400003FB7F8948091360131
:1001200090913701A0913801B091390126B5A89B73
:1001300005C02F3F19F00196A11DB11D3FBFBA2F79
:10014000A92F982F8827820F911DA11DB11DBC01D9
:10015000CD0142E0660F771F881F991F4A95D1F79E
:1001600008952FB7F8946091320170913301809116
:100170003401909135012FBF08950E94B10028EEFF
:1001800033E040E050E00E94320ACA01B90108950C
:100190008F929F92AF92BF92CF92DF92EF92FF9297
:1001A0000F931F93CF93DF93EC014A015B01CC8047
:1001B000DD80EE80FF808A85882371F0E885F985EF
:1001C0000995088119812A813B81DC01CB01801BC3
:1001D000910BA20BB30B03C080E090E0DC018C0D0F
:1001E0009D1DAE1DBF1D21E088159905AA05BB0503
:1001F00008F420E0822FDF91CF911F910F91FF90A3
:10020000EF90DF90CF90BF90AF909F908F90089528
:10021000833081F028F4813099F08230A1F0089584
:100220008730A9F08830B9F08430D1F48091800013
:100230008F7D03C0809180008F7780938000089528
:1002400084B58F7702C084B58F7D84BD0895809179
:10025000B0008F7703C08091B0008F7D8093B00095
:100260000895CF93DF93282F30E0F901E255FF4F37
:100270008491F901E656FF4FD491F901EA57FF4FF7
:10028000C491CC2391F081110E940801EC2FF0E081
:10029000EE0FFF1FE458FF4FA591B491EC91ED23B1
:1002A00081E090E021F480E002C080E090E0DF9106
:1002B000CF9108951F93CF93DF93282F30E0F9015A
:1002C000E255FF4F8491F901E656FF4FD491F901B1
:1002D000EA57FF4FC491CC23C9F0162F81110E9419
:1002E0000801EC2FF0E0EE0FFF1FEE58FF4FA59135
:1002F000B4918FB7F894111105C09C91ED2FE09542
:10030000E92302C0EC91ED2BEC938FBFDF91CF91ED
:100310001F910895CF93DF9390E0FC01E656FF4FC5
:100320002491FC01EA57FF4F8491882361F190E00A
:10033000880F991FFC01E859FF4FC591D491FC012A
:10034000EE58FF4FA591B491611109C09FB7F89481
:100350008881209582238883EC912E230BC0623004
:1003600061F49FB7F8943881822F80958323888326
:10037000EC912E2B2C939FBF06C08FB7F894E88189
:100380002E2B28838FBFDF91CF9108958E3008F0F8
:100390008E508770806480937C0080917A008064A6
:1003A00080937A0080917A0086FDFCCF809178005E
:1003B0002091790090E0922B08958F929F92AF92B6
:1003C000BF92CF92DF92EF92FF926B017C010E946D
:1003D0008C004B015C01C114D104E104F104F1F083
:1003E0000E948C00DC01CB0188199909AA09BB097C
:1003F000883E9340A105B10570F321E0C21AD108EF
:10040000E108F10888EE880E83E0981EA11CB11C5B
:10041000C114D104E104F10419F7DDCFFF90EF908E
:10042000DF90CF90BF90AF909F908F900895CF9224
:10043000DF92EF92FF920F931F93CF93DF936C01A4
:100440007A018B01C0E0D0E0CE15DF0589F0D8013C
:100450006D918D01D601ED91FC910190F081E02D1F
:10046000C6010995892B11F47E0102C02196ECCFBB
:10047000C701DF91CF911F910F91FF90EF90DF9017
:10048000CF900895FC01918D828D981761F0828D37
:10049000DF01A80FB11D5D968C91928D9F5F9F73B8
:1004A000928F90E008958FEF9FEF0895FC01918D5A
:1004B000828D981731F0828DE80FF11D858D90E0C7
:1004C00008958FEF9FEF0895FC01918D228D892F64
:1004D00090E0805C9F4F821B91098F73992708954C
:1004E0008AE391E00E94640221E0892B09F420E074
:1004F000822F0895FC01848DDF01A80FB11DA35A3E
:10050000BF4F2C91848D90E001968F739927848F33
:10051000A689B7892C93A089B1898C9180648C932A
:10052000938D848D981306C00288F389E02D808115
:100530008F7D80830895EF92FF920F931F93CF9347
:10054000DF93EC0181E0888F9B8D8C8D981305C023
:10055000E889F989808185FD24C0F62E0B8D10E095
:100560000F5F1F4F0F731127E02E8C8DE8120CC008
:100570000FB607FCFACFE889F989808185FFF5CFAE
:10058000CE010E947A02F1CF8B8DFE01E80FF11DA2
:10059000E35AFF4FF0820B8FEA89FB8980818062EA
:1005A00007C0EE89FF896083E889F98980818064CA
:1005B000808381E090E0DF91CF911F910F91FF90B8
:1005C000EF900895CF93DF93EC01888D8823C9F0D5
:1005D000EA89FB89808185FD05C0A889B9898C914C
:1005E00086FD0FC00FB607FCF5CF808185FFF2CFE7
:1005F000A889B9898C9185FFEDCFCE010E947A023E
:10060000E7CFDF91CF91089580E090E0892B29F02A
:100610000E94700281110C940000089582309105AF
:1006200099F02CF4009751F0019759F00895843017
:10063000910581F064F0059781F0089560E082E013
:100640000EC060E083E00BC060E084E008C060E0C2
:1006500085E005C060E086E002C060E087E00C94C1
:100660005A018230910599F02CF4009751F00197CE
:1006700059F008958430910581F064F0059781F078
:10068000089561E082E00EC061E083E00BC061E0AC
:1006900084E008C061E085E005C061E086E002C05A
:1006A00061E087E00C945A018230910589F034F4BE
:1006B000009761F00197B9F48FE00FC08430910585
:1006C00059F044F0059779F485E107C08EE005C044
:1006D00080E103C081E101C084E10E94C60121E004
:1006E000883C91050CF020E0822F0895009769F076
:1006F000FC0101900020E9F73197AF01481B590B2D
:10070000BC018AE391E00C94170280E090E0089528
:100710000E946D071F920F920FB60F9211242F9314
:100720003F938F939F93AF93BF93809132019091AA
:100730003301A0913401B09135013091310123E0B2
:10074000230F2D3720F40196A11DB11D05C026E809
:10075000230F0296A11DB11D209331018093320118
:1007600090933301A0933401B09335018091360109
:1007700090913701A0913801B09139010196A11DE6
:10078000B11D8093360190933701A0933801B09347
:100790003901BF91AF919F918F913F912F910F9010
:1007A0000FBE0F901F9018951F920F920FB60F92C9
:1007B00011242F933F934F935F936F937F938F9366
:1007C0009F93AF93BF93EF93FF938AE391E00E94CF
:1007D0007A02FF91EF91BF91AF919F918F917F919D
:1007E0006F915F914F913F912F910F900FBE0F909E
:1007F0001F9018951F920F920FB60F9211242F93EE
:100800008F939F93EF93FF93E0914A01F0914B01F7
:100810008081E0915001F091510182FD12C09081E0
:10082000809153018F5F8F7320915401821751F093
:10083000E0915301F0E0E65CFE4F958F8093530109
:1008400001C08081FF91EF919F918F912F910F9027
:100850000FBE0F901F9018951F93CF93DF93EAE37D
:10086000F1E01382128288EE93E0A0E0B0E084838E
:100870009583A683B78388E191E09183808385EC9B
:1008800090E09587848784EC90E09787868780EC5A
:1008900090E0918B808B81EC90E0938B828B82EC4B
:1008A00090E0958B848B86EC90E0978B868B118EF5
:1008B000128E138E148EC2EED1E08DEB90E09987EC
:1008C00088870E94BD00688379838A839B831C820A
:1008D0001D821E821F8211E01A87C7EDD1E081EBD5
:1008E00090E0998788870E94B100688379838A8322
:1008F0009B831C821D821E821F821A87DF91CF91EB
:100900001F910895CF93DF93CDB7DEB7C656D109B7
:100910000FB6F894DEBF0FBECDBF789484B5826069
:1009200084BD84B5816084BD85B5826085BD85B593
:10093000816085BD80916E00816080936E00109211
:10094000810080918100826080938100809181008C
:10095000816080938100809180008160809380001D
:100960008091B10084608093B1008091B00081607B
:100970008093B00080917A00846080937A008091A7
:100980007A00826080937A0080917A0081608093FF
:100990007A0080917A00806880937A001092C1007A
:1009A00062E08AE00E948A0160E089E00E948A0198
:1009B00061E08BE00E948A0161E088E00E948A0188
:1009C00061E082E00E948A0161E083E00E948A0186
:1009D00061E084E00E948A0161E085E00E948A0172
:1009E00061E086E00E948A0161E087E00E948A015E
:1009F00061E08BE00E945A0160E088E00E945A01A9
:100A000060E082E00E945A0160E083E00E945A01A7
:100A100060E084E00E945A0160E085E00E945A0193
:100A200060E086E00E945A0160E087E00E945A017F
:100A3000E0914A01F0914B0182E08083E091460110
:100A4000F09147011082E0914801F09149018FEC4B
:100A5000808310925201E0914E01F0914F0186E0A7
:100A60008083E0914C01F0914D0180818061808311
:100A7000E0914C01F0914D01808188608083E0918C
:100A80004C01F0914D01808180688083E0914C01A0
:100A9000F0914D0180818F7D808383E0282E312C61
:100AA00092E0E92EF12C24E0422E512C39E0632E05
:100AB000712CCE010596A7969FAF8EAFA79747E002
:100AC000C42E41E0D42EFE0131965F018824839428
:100AD000912C8091300181111FC08AE00E94310168
:100AE000892BD1F464E670E080E090E00E94DD01A3
:100AF0008AE00E943101892B79F460E08BE00E944A
:100B00005A0161E088E00E945A0181E0809330013F
:100B100010922F0110922E0180913001882309F448
:100B2000D3C180912E0190912F018230910509F45B
:100B30008DC02CF4009759F0019721F1C5C1833085
:100B4000910509F492C0049709F42EC1BDC1109219
:100B50002B0110922A011092290110922801109263
:100B600027011092260100E010E0C8010E940E0348
:100B70000F5F1F4F06301105C1F790922F01809231
:100B80002E01A2C189E00E943101019709F09CC1A8
:100B900064E670E080E090E00E94DD0189E00E9460
:100BA0003101019709F090C1E091EA01F091EB0168
:100BB00009956093E2017093E3018093E4019093BF
:100BC000E5011092E6011092E7011092E8011092FF
:100BD000E90111E01093EC01E091DF01F091E001F7
:100BE00009956093D7017093D8018093D9019093B0
:100BF000DA011092DB011092DC011092DD011092FB
:100C0000DE011093E10161E08CE00E945A0164E68C
:100C100070E080E090E00E94DD0180E091E00E94C1
:100C2000760384E291E00E94760364E670E080E05F
:100C300090E00E94DD0160E08CE00E945A01F09299
:100C40002F01E0922E0160E088E03CC168EE73E085
:100C500080E090E00E94DD0161E088E00E945A019E
:100C600030922F0120922E012FC148E750E060E022
:100C700070E082EE91E00E94C800882329F0509233
:100C80002F0140922E0120C148EE53E060E070E059
:100C900087ED91E00E94C80000912A0110912B017C
:100CA000882329F1C8010E940E030F5F1F4F109384
:100CB0002B0100932A01C8010E94310361E088E002
:100CC0000E945A01809126019091270101969093EC
:100CD0002701809326010730110524F010922B0183
:100CE00010922A01F0922F01E0922E01EDC0C8016E
:100CF0000E945403882309F4E7C0C8010E945403EA
:100D0000882309F4E1C0C8010E94310364E670E061
:100D100080E090E00E94DD01C8010E940E0362E3C2
:100D200070E080E090E00E94DD01C8010E94310384
:100D300064E670E080E090E00E94DD01C8010E945E
:100D40000E0362E370E080E090E00E94DD01C801E4
:100D50000E940E0389E00E943101019709F0B4C09E
:100D600064E670E080E090E00E94DD0189E00E948E
:100D70003101019709F0A8C00F5F1F4F073011051F
:100D80002CF410932B0100932A0104C010922B0124
:100D900010922A0180912801909129010196909347
:100DA00029018093280190C010922F0110922E01EA
:100DB000209128013091290140912601509127016D
:100DC00042175307A8F0A7E0B0E00E94540A9A0126
:100DD00040E050E00E94130ADA01C9010396A11D08
:100DE000B11D90932D0180932C0100E010E005C00F
:100DF00070922D0160922C01F8CFC8010E940E0361
:100E00000F5F1F4F06301105C1F760E088E00E94B8
:100E10005A0180912C0190912D01009709F454C042
:100E200019821A821B821C82A796EEADFFADA7978E
:100E300020E611922A95E9F79F938F93DF92CF9244
:100E4000BF92AF920E94720761E08CE00E945A014B
:100E500064E670E080E090E00E94DD01C5010E9440
:100E6000760384E291E00E94760364E670E080E01D
:100E700090E00E94DD0160E08CE00E945A01109237
:100E800030010F900F900F900F900F900F9005E092
:100E900010E061E08BE00E945A0164E670E080E0BF
:100EA00090E00E94DD0160E08BE00E945A0164E660
:100EB00070E080E090E00E94DD010150110949F7E7
:100EC00061E08BE00E945A010E94040302CEEE0F03
:100ED000FF1F0590F491E02D099481E090E0F894D3
:100EE0000C949A0AAEE0B0E0E8E7F7E00C94710ADF
:100EF0000D891E8986E08C831A8309838FEF9FE713
:100F00009E838D83AE01475E5F4F6F89788DCE01E2
:100F100001960E9495072F813885F801E20FF31F93
:100F200010822E96E4E00C948D0AACE0B0E0EBE980
:100F3000F7E00C94630A7C016B018A01FC011782C3
:100F40001682838181FFBDC1CE0101964C01F7015C
:100F50009381F60193FD859193FF81916F01882321
:100F600009F4ABC1853239F493FD859193FF8191EA
:100F70006F01853229F4B70190E00E947D09E7CF27
:100F8000512C312C20E02032A0F48B3269F030F467
:100F9000803259F0833269F420612CC08D3239F0EF
:100FA000803339F4216026C02260246023C0286089
:100FB00021C027FD27C030ED380F3A3078F426FFE6
:100FC00006C0FAE05F9E300D1124532E13C08AE054
:100FD000389E300D1124332E20620CC08E3221F445
:100FE00026FD6BC1206406C08C3611F4206802C057
:100FF000883641F4F60193FD859193FF81916F014D
:101000008111C1CF982F9F7D9554933028F40C5FA8
:101010001F4FFFE3F9830DC0833631F0833771F042
:10102000833509F05BC022C0F801808189830E5F9F
:101030001F4F44244394512C540115C03801F2E051
:101040006F0E711CF801A080B18026FF03C0652DD2
:1010500070E002C06FEF7FEFC5012C870E9472091C
:101060002C0183012C852F77222E17C03801F2E046
:101070006F0E711CF801A080B18026FF03C0652DA2
:1010800070E002C06FEF7FEFC5012C870E946709F7
:101090002C012C852068222E830123FC1BC0832D6C
:1010A00090E048165906B0F4B70180E290E00E9443
:1010B0007D093A94F4CFF50127FC859127FE8191B3
:1010C0005F01B70190E00E947D0931103A94F1E090
:1010D0004F1A51084114510471F7E5C0843611F0DC
:1010E000893639F5F80127FF07C060817181828157
:1010F00093810C5F1F4F08C060817181072E000C27
:10110000880B990B0E5F1F4F2F76722E97FF09C029
:1011100090958095709561957F4F8F4F9F4F206878
:10112000722E2AE030E0A4010E94B509A82EA8186A
:1011300044C0853729F42F7EB22E2AE030E025C046
:10114000F22FF97FBF2E8F36C1F018F4883579F071
:10115000B4C0803719F0883721F0AFC02F2F20613D
:10116000B22EB4FE0DC08B2D8460B82E09C024FFB2
:101170000AC09F2F9660B92E06C028E030E005C057
:1011800020E130E002C020E132E0F801B7FE07C004
:1011900060817181828193810C5F1F4F06C06081E5
:1011A000718180E090E00E5F1F4FA4010E94B5099D
:1011B000A82EA818FB2DFF777F2E76FE0BC0372DAB
:1011C0003E7FA51450F474FE0AC072FC08C0372D8F
:1011D0003E7E05C0BA2C372D03C0BA2C01C0B52CF9
:1011E00034FF0DC0FE01EA0DF11D8081803311F442
:1011F000397E09C032FF06C0B394B39404C0832F74
:10120000867809F0B39433FD13C030FF06C05A2C22
:10121000B31418F4530C5B18B32CB31468F4B7016F
:1012200080E290E03C870E947D09B3943C85F5CF35
:10123000B31410F43B1801C0312C34FF12C0B701B5
:1012400080E390E03C870E947D093C8532FF17C017
:1012500031FD03C088E790E002C088E590E0B70167
:101260000CC0832F867859F031FF02C08BE201C099
:1012700080E237FD8DE2B70190E00E947D09A51460
:1012800038F4B70180E390E00E947D095A94F7CFCB
:10129000AA94F401EA0DF11D8081B70190E00E944B
:1012A0007D09A110F5CF332009F451CEB70180E2BA
:1012B00090E00E947D093A94F6CFF70186819781EC
:1012C00002C08FEF9FEF2C96E2E10C947F0AFC01A5
:1012D0000590615070400110D8F7809590958E0F61
:1012E0009F1F0895FC016150704001900110D8F7D4
:1012F000809590958E0F9F1F08950F931F93CF9306
:10130000DF93FB01238121FD03C08FEF9FEF28C0F6
:1013100022FF16C046815781248135814217530729
:1013200044F4A081B1819D012F5F3F4F3183208321
:101330008C93268137812F5F3F4F3783268310C0E0
:10134000EB01092F182F0084F185E02D0995892BD9
:10135000E1F68E819F8101969F838E83812F902F4E
:10136000DF91CF911F910F910895FA01AA2728309C
:1013700051F1203181F1E8946F936E7F6E5F7F4F62
:101380008F4F9F4FAF4FB1E03ED0B4E03CD0670FDE
:10139000781F891F9A1FA11D680F791F8A1F911D31
:1013A000A11D6A0F711D811D911DA11D20D009F481
:1013B00068943F912AE0269F11243019305D3193C3
:1013C000DEF6CF010895462F4770405D4193B3E0AC
:1013D0000FD0C9F7F6CF462F4F70405D4A3318F053
:1013E000495D31FD4052419302D0A9F7EACFB4E004
:1013F000A6959795879577956795BA95C9F70097BC
:101400006105710508959B01AC010A2E069457955C
:10141000479537952795BA95C9F7620F731F841FB3
:10142000951FA01D0895052E97FB1EF400940E94A1
:101430002A0A57FD07D00E94320A07FC03D04EF457
:101440000C942A0A50954095309521953F4F4F4F67
:101450005F4F089590958095709561957F4F8F4F60
:101460009F4F0895A1E21A2EAA1BBB1BFD010DC0C0
:10147000AA1FBB1FEE1FFF1FA217B307E407F50744
:1014800020F0A21BB30BE40BF50B661F771F881F20
:10149000991F1A9469F760957095809590959B01B6
:1014A000AC01BD01CF010895A29FB001B39FC0015F
:1014B000A39F700D811D1124911DB29F700D811D80
:1014C0001124911D08952F923F924F925F926F9237
:1014D0007F928F929F92AF92BF92CF92DF92EF92C4
:1014E000FF920F931F93CF93DF93CDB7DEB7CA1B45
:1014F000DB0B0FB6F894DEBF0FBECDBF09942A8870
:10150000398848885F846E847D848C849B84AA8417
:10151000B984C884DF80EE80FD800C811B81AA81A4
:10152000B981CE0FD11D0FB6F894DEBF0FBECDBF6F
:08153000ED010895F894FFCFCE
:101538005354415254420053544F50423A25640088
:1015480001000000000000009B0217026402420232
:061558005602E2020A0047
:00000001FF
